:100000000C9477050C949F050C949F050C949F0508
:100010000C949F050C949F050C949F050C949F05D0
:100020000C949F050C949F050C949F050C949F05C0
:100030000C949F050C949F050C949F050C949F05B0
:100040000C94D8160C949F050C94A6160C9480164C
:100050000C949F050C949F050C949F050C949F0590
:100060000C9422170C949F054E414E494E49545909
:10007000494E46CDCCCC3D0AD7233C17B7D1387773
:10008000CC2B329595E6241FB14F0A000020410089
:1000900000C84200401C4620BCBE4CCA1B0E5AAED3
:1000A000C59D7400FF2F260000000000003E5B4F3E
:1000B0005B3E3E6B4F6B3E1C3E7C3E1C183C7E3CC8
:1000C000181C577D571C1C5E7F5E1C00183C1800D6
:1000D000FFE7C3E7FF0018241800FFE7DBE7FF3066
:1000E000483A060E2629792926407F050507407FD4
:1000F00005253F5A3CE73C5A7F3E1C1C08081C1C47
:100100003E7F14227F22145F5F005F5F06097F013C
:100110007F006689956A606060606094A2FFA29427
:1001200008047E040810207E201008082A1C0808F5
:100130001C2A08081E101010100C1E0C1E0C303843
:100140003E3830060E3E0E06000000000000005F44
:1001500000000007000700147F147F14242A7F2A60
:100160001223130864623649562050000807030022
:10017000001C2241000041221C002A1C7F1C2A086E
:10018000083E0808008070300008080808080000D1
:1001900060600020100804023E5149453E00427F45
:1001A000400072494949462141494D331814127F94
:1001B0001027454545393C4A494931412111090734
:1001C0003649494936464949291E000014000000B5
:1001D0004034000000081422411414141414004187
:1001E00022140802015909063E415D594E7C121144
:1001F000127C7F494949363E414141227F4141417C
:100200003E7F494949417F090909013E41415173F6
:100210007F0808087F00417F41002040413F017F67
:10022000081422417F404040407F021C027F7F042F
:1002300008107F3E4141413E7F090909063E415178
:10024000215E7F09192946264949493203017F0168
:10025000033F4040403F1F2040201F3F4038403F69
:10026000631408146303047804036159494D43007F
:100270007F4141410204081020004141417F0402B6
:10028000010204404040404000030708002054544D
:1002900078407F284444383844444428384444282B
:1002A0007F385454541800087E090218A4A49C787E
:1002B0007F0804047800447D40002040403D007FDA
:1002C0001028440000417F40007C047804787C08BA
:1002D0000404783844444438FC182424181824248E
:1002E00018FC7C08040408485454542404043F4473
:1002F000243C4040207C1C2040201C3C4030403CA2
:1003000044281028444C9090907C4464544C440001
:100310000836410000007700000041360800020165
:100320000204023C2623263C1EA1A161123A404051
:10033000207A3854545559215555794122545478CE
:1003400042215554784020545579400C1E52721267
:1003500039555555593954545459395554545800F0
:1003600000457C410002457D420001457C407D12F4
:1003700011127DF0282528F07C5455450020545456
:100380007C547C0A097F4932494949323A44444401
:100390003A324A4848303A4141217A3A424020783C
:1003A000009DA0A07D3D4242423D3D4040403D3C3D
:1003B00024FF2424487E4943662B2FFC2F2BFF0962
:1003C00029F620C0887E0903205454794100004456
:1003D0007D413048484A32384040227A007A0A0A41
:1003E000727D0D19317D2629292F282629292926B4
:1003F00030484D4020380808080808080808382FF9
:1004000010C8ACBA2F102834FA00007B0000081482
:100410002A142222142A14085500550055AA55AA58
:1004200055AAFF55FF55FF000000FF00101010FFF8
:1004300000141414FF001010FF00FF1010F010F053
:10044000141414FC001414F700FF0000FF00FF1444
:1004500014F404FC141417101F10101F101F141490
:10046000141F00101010F0000000001F10101010DA
:100470001F10101010F010000000FF1010101010CE
:1004800010101010FF10000000FF140000FF00FF0C
:1004900000001F10170000FC04F4141417101714A8
:1004A00014F404F40000FF00F714141414141414CA
:1004B000F700F7141414171410101F101F1414143D
:1004C000F4141010F010F000001F101F0000001FA7
:1004D00014000000FC140000F010F01010FF10FFDA
:1004E000141414FF141010101F00000000F010FF6F
:1004F000FFFFFFFFF0F0F0F0F0FFFFFF0000000053
:1005000000FFFF0F0F0F0F0F3844443844FC4A4AD6
:100510004A347E02020606027E027E02635549418B
:10052000633844443C04407E201E2006027E0202C2
:1005300099A5E7A5991C2A492A1C4C7201724C30D6
:100540004A4D4D303048784830BC625A463D3E49AD
:100550004949007E0101017E2A2A2A2A2A44445F51
:10056000444440514A444040444A51400000FF0145
:1005700003E080FF000008086B6B08361236243653
:10058000060F090F060000181800000010100030B8
:1005900040FF0101001F01011E00191D1712003C40
:1005A0003C3C3C0000000000000103070F1F3F7FA0
:1005B0000080C0E0F0F8FCFE0000000023002600F0
:1005C000290000000000240027002A00DB40A4A628
:1005D0002EAF2000A1C8D300408DAED580A8010267
:1005E00004081020408001020408102001020408C1
:1005F000102000000000250028002B000404040443
:1006000004040404020202020202030303030303BC
:10061000000060000000000000000000000000007A
:1006200000E00000000000000000000000000001E9
:10063000E00000000000000000000000000001F0E9
:100640000000000000000000000000000003F000B7
:1006500000000000000000000000000007F00000A3
:10066000000000000000000000000007F80000008B
:10067000000000000000000000000FF80000000370
:10068000C0007E000001E0007F0FF800000003C002
:1006900000FE000001E000FFEFF800000003C000D2
:1006A000FE000001E000FFFFF800000003C000F0C2
:1006B0000000000F007FFE7FC0000003C000F000BC
:1006C00000000F003FFE7FF83FF1FBCFFCFEF3BCC4
:1006D0003DEFE01FFE7FFF7FFBFFDFFEFEFFBC3D27
:1006E000EFE01FC6FFFF7FFBFFDFFEFEFFBC3DEF1D
:1006F000E00FE3C7FE787BC3DE1EF0FFBC3DEF00DA
:1007000007FF87FC787BC3DE1EF0F83C3DEF00015D
:10071000FFFFF0007BC3C01EF0F03C3DEF0001F393
:100720007FE03FFBC3CFFEF0F03C3DEF0003E33F33
:10073000807FFBC3DFFEF0F03C3DEF0007E73C00AD
:10074000787BC3DE1EF0F03C3DEF0007FFBE007873
:100750007BC3DE1EF0F03C3DEF0007FFFE00787B20
:10076000C3DE1EF0F03C3DEF000FFFFE007FFBFFFD
:10077000DFFEF0F03FFDEFE00FFFFF007FFBFFDF4C
:10078000FEF0F03FFDEFE00FF9FF003E79F9CF9E5C
:10079000F0F01F3DE7E01FF1FF0000000000000047
:1007A00000000000001F80FF007FFFFFFFFFFFFF32
:1007B000FFFFFFE01C007F007FFFFFFFFEB46D889E
:1007C0008D18E000001F007FFFFFFFFE95AD7DB597
:1007D00077E000000F007FFFFFFFFEA5AD9D8D19A4
:1007E000E0000006007FFFFFFFFEB5ADEDB57EE047
:1007F0000000000000018000000000000000000078
:10080000038000000000000000000007C00000009E
:1008100000000000000007C0000000000000000011
:10082000000FC00000000000000000001FE00000FA
:10083000000000000000001FE000000000000000B9
:1008400000003FE00000000000000000003FF0005A
:1008500000000000000000007FF000000000000029
:10086000001FF87FF0000000000000003FFE7FF056
:10087000000000000000003FFF7FF00000000000CB
:1008800000001FFFFBE0000000000000000FFFF968
:10089000FFC00000000000000FFFF9FFF80000009B
:1008A00000000007FFF1FFFF00000000000003FC54
:1008B00073FFFF80000000000001FE3FFFFF80008B
:1008C0000000000000FF1E0FFF00000000000000FD
:1008D0007FFE1FFC000000000000003FFFFFF8004B
:1008E0000000000000000FDFFFE00000000000003B
:1008F000001F19FFC0000000000000003F3CFF0087
:10090000000000000000007E7CF8000000000000F5
:1009100000007FFE7C0000000000000000FFFFFCE4
:100920000000000000000000FFFFFE0000000000CB
:10093000000000FFFFFE0000000000000001FFEFCC
:10094000FE0000000000000001FFCFFE00000000DC
:1009500000000003FF07FE0000000000000003FC91
:1009600007FE0000000000000003F003FE0000008E
:1009700000000000018000FE0000000000000000F8
:1009800000007E000000000000000000003E0000AB
:1009900000000000000000000C0000000000000744
:1009A0008000FC000003C0000000078001FC000084
:1009B00003C0000000078001FC000003C00000002D
:1009C000078001E00000001E000000078001E00039
:1009D00000001E007FE3F79FF9FDE7787BDFC0FF93
:1009E000F7FFBFFDFDFF787BDFC0FFF7FFBFFDFD19
:1009F000FF787BDFC0F0F787BC3DE1FF787BDE004E
:100A0000F0F787BC3DE1F0787BDE0000F787803DA2
:100A1000E1E0787BDE007FF7879FFDE1E0787BDE19
:100A200000FFF787BFFDE1E0787BDE00F0F787BCD1
:100A30003DE1E0787BDE00F0F787BC3DE1E0787BCC
:100A4000DE00F0F787BC3DE1E0787BDE00FFF7FFDA
:100A5000BFFDE1E07FFBDFC0FFF7FFBFFDE1E07F0F
:100A6000FBDFC07CF3F39F3DE1E03E7BCFC00000A5
:100A7000000000000000000000FFFFFFFFFFFFFF7D
:100A8000FFFFFFC0FFFFFFFFFD68DB111A31C0FF52
:100A9000FFFFFFFD2B5AFB6AEFC0FFFFFFFFFD4B7F
:100AA0005B3B1A33C0FFFFFFFFFD6B5BDB6AFDC0E2
:100AB0005353443133303620616C6C6F6361746919
:100AC0006F6E206661696C6564002A5244592A0081
:100AD00000000008000201000003040700000000FD
:100AE000000000002200FF2100004118E51F112432
:100AF0001FBECFEFD8E0DEBFCDBF11E0A0E0B1E078
:100B0000ECE0FBE402C005900D92AE3BB107D9F7D3
:100B100023E0AEEBB1E001C01D92A536B207E1F7CC
:100B200015E0C6E7D5E004C02197FE010E947523B9
:100B3000C537D107C9F70E94A7180C9479250C94E2
:100B40000000089508950895AF92BF92CF92DF926A
:100B5000EF92FF920F931F93CF93DF936C017B0172
:100B60008B01040F151FEB015E01AE18BF08C01703
:100B7000D10759F06991D601ED91FC910190F08176
:100B8000E02DC6010995892B79F7C501DF91CF9139
:100B90001F910F91FF90EF90DF90CF90BF90AF909B
:100BA0000895FC01538D448D252F30E0842F90E073
:100BB000821B930B541710F0CF9608950197089558
:100BC000FC01918D828D981761F0A28DAE0FBF2F21
:100BD000B11D5D968C91928D9F5F9F73928F90E077
:100BE00008958FEF9FEF08952FB7F89480917E02BC
:100BF00090917F02A0918002B09181022FBF8093DB
:100C00008A0290938B02A0938C02B0938D0282E8AB
:100C100092E00E94E00597FF26C02FB7F8948091DC
:100C20007E0290917F02A0918002B09181022FBF3D
:100C300040918A0250918B0260918C0270918D02DA
:100C4000841B950BA60BB70B40918602509187022F
:100C5000609188027091890284179507A607B707EB
:100C6000B0F28FEF9FEF0895FC01918D828D981760
:100C700031F0828DE80FF11D858D90E008958FEFA2
:100C80009FEF0895FC01918D228D892F90E0805C6B
:100C90009F4F821B91098F739927089582E892E0F4
:100CA0000E94420621E0892B09F420E0822F08955A
:100CB00080E090E0892B29F00E944E0681110C946F
:100CC00000000895FC01A48DA80FB92FB11DA35AEF
:100CD000BF4F2C91848D90E001968F739927848F5C
:100CE000A689B7892C93A089B1898C91837080647F
:100CF0008C93938D848D981306C00288F389E02D20
:100D000080818F7D80830895EF92FF920F931F93D0
:100D1000CF93DF93EC0181E0888F9B8D8C8D9813AE
:100D20001AC0E889F989808185FF15C09FB7F894BA
:100D3000EE89FF896083E889F98980818370806406
:100D400080839FBF81E090E0DF91CF911F910F9151
:100D5000FF90EF900895F62E0B8D10E00F5F1F4F60
:100D60000F731127E02E8C8D8E110CC00FB607FC6F
:100D7000FACFE889F989808185FFF5CFCE010E94FD
:100D80006206F1CFEB8DEC0FFD2FF11DE35AFF4F03
:100D9000F0829FB7F8940B8FEA89FB89808180628B
:100DA000CFCFCF93DF93EC01888D8823B9F0AA8948
:100DB000BB89E889F9898C9185FD03C0808186FD16
:100DC0000DC00FB607FCF7CF8C9185FFF2CF808165
:100DD00085FFEDCFCE010E946206E9CFDF91CF9172
:100DE0000895833081F028F4813099F08230A9F0A1
:100DF00008958730A9F08830C9F08430B1F480912B
:100E000080008F7D03C0809180008F778093800069
:100E1000089584B58F7784BD089584B58F7DFBCF09
:100E20008091B0008F778093B00008958091B000DA
:100E30008F7DF9CFCF93DF93282F30E0F901E05376
:100E4000F54F8491F901E252FA4FD491F901E4503F
:100E5000FA4FC491CC23A1F081110E94F106EC2F2E
:100E6000F0E0EE0FFF1FE854FA4FA591B491EC911A
:100E7000ED2381E090E009F480E0DF91CF910895C7
:100E800080E090E0FACF1F93CF93DF93282F30E0DC
:100E9000F901E053F54F8491F901E252FA4FD491F0
:100EA000F901E450FA4FC491CC23A9F0162F811117
:100EB0000E94F106EC2FF0E0EE0FFF1FEE50FA4F0C
:100EC000A591B4918FB7F894EC91111108C0D09509
:100ED000DE23DC938FBFDF91CF911F910895DE2B2E
:100EE000F8CFCF93DF9390E0FC01E252FA4F2491C8
:100EF00084509A4FFC0184918823D1F090E0880FB0
:100F0000991FFC01EE53FA4FA591B491FC01EE50EC
:100F1000FA4FC591D49161110EC09FB7F8948C918E
:100F2000E22FE0958E238C932881E223E8839FBFF4
:100F3000DF91CF9108958FB7F894EC91E22BEC9369
:100F40008FBFF6CF3FB7F89480916F0290917002F7
:100F5000A0917102B091720226B5A89B05C02F3FE7
:100F600019F00196A11DB11D3FBFBA2FA92F982FCF
:100F70008827BC01CD01620F711D811D911D42E0CA
:100F8000660F771F881F991F4A95D1F708958F9292
:100F90009F92AF92BF92CF92DF92EF92FF924B015E
:100FA0005C010E94A2076B017C010E94A2076C19E0
:100FB0007D098E099F09683E734081059105A8F35C
:100FC00021E0821A9108A108B10888EEC80E83E0DA
:100FD000D81EE11CF11C81149104A104B10429F76D
:100FE000FF90EF90DF90CF90BF90AF909F908F9049
:100FF0000895EF92FF920F931F93CF93DF93EC012D
:10100000EC80FD806E157F050CF070C057FF04C0AA
:10101000240F351F50E040E08E819F81FA01E20FDE
:10102000F31F8E179F071CF49C01241B350B12160F
:1010300013060CF05BC0922F842F869586958695BB
:101040008E9DD0018F9DB00D11246A0F7B1FAF8D37
:10105000B8A1A60FB71F477049F188E0841B482F3D
:10106000682F70E0FB01E055FA4FE491281708F073
:1010700063C0621B71092FEF30E002C035952795E0
:101080006A95E2F7E2230130110539F0B0F1023040
:10109000110561F58C91E82702C08C91E82BEC9347
:1010A000941720F12C813D81A20FB31FE92FE41B7F
:1010B000E83078F00230110521F58E2F9C91909543
:1010C0009C932C813D81A20FB31F88508830B0F7CC
:1010D000E770EE2359F0F0E0E855FA4FE491013063
:1010E0001105F9F010F10230110519F1DF91CF91DE
:1010F0001F910F91FF90EF900895E0958C91E82358
:10110000CECF81E00115110509F480E081959E2F75
:101110008C932C813D81A20FB31F98509830C0F75B
:10112000D7CF8C91E82BEC93E1CFE0958C91E8231D
:10113000FACF8C91E827F7CF0130110509F4ADCF34
:10114000E0F20230110509F4A5CFAE0DBF1DAECF00
:101150000F931F93CF93DF9377FF04C0260F371FA2
:1011600070E060E0DC011496CD91DC91FB01E20FB0
:10117000F31FCE17DF071CF49E01261B370B121638
:1011800013064CF5FA0157FD3796A3E0F595E79560
:10119000AA95E1F7EC9FD001ED9FB00DFC9FB00D3B
:1011A00011246A0F7B1FDC015F96ED91FC91E60F25
:1011B000F71F4770552781E090E001C0880F4A95DE
:1011C000EAF7482F0130110559F0A8F02E0F3F1F04
:1011D00002301105E1F0DF91CF911F910F91089539
:1011E0002E0F3F1FE217F307B1F38191DF01119733
:1011F000842B8C93F7CF80952E0F3F1FE217F307B8
:1012000051F39191DF01119798239C93F7CFE21747
:10121000F30709F38191DF01119784278C93F7CFAE
:101220000F931F93FA01DC0156964C91569742306A
:10123000E9F04330A1F1413061F514964D915C9194
:10124000DA01AE1BBF0BFD01E21BF30B77FD0BC0F8
:10125000DC0116964D915C916417750724F4AB017F
:10126000BF010E94A8081F910F91089514964D91F7
:101270005C91DA01A61BB70BBD0161507109DC015D
:1012800016964D915C91DA01AE1BBF0BFD01E21B7E
:10129000F30B77FDE8CFAF010E94F907E4CF169674
:1012A0004D915C91DA01A61BB70BBD01615071092C
:1012B000CDCF0F931F93FA01DC0156964C915697B0
:1012C0004230A9F0433091F1413019F514964D9117
:1012D0005C91DA01AE1BBF0BFD013197F7FD04C035
:1012E000AB01BF010E94F9071F910F910895149659
:1012F0004D915C91DA01A61BB70BBD01DC0116967E
:101300004D915C91DA01AE1BBF0BFD013197621B61
:10131000730BF7FDE9CFDC0116964D915C91E41754
:10132000F50714F7AF010E94A808DECF16964D917D
:101330005C91DA01A61BB70BBD01621B730BCECF0C
:10134000FC0177FD64C080859185681779070CF0F2
:101350005EC057FD5CC082859385481759070CF025
:1013600056C086898230B1F0833029F1813041F452
:1013700084819581841B950BAB01BC01615071097F
:101380002130310509F108F443C02230310509F458
:1013900063C0089584819581DC01A61BB70BBD0154
:1013A0006150710986819781DC01A41BB50BAD01E9
:1013B00041505109E5CF86819781861B970BBA0171
:1013C000AC0141505109DCCFCA0157FD0796A3E09B
:1013D00095958795AA95E1F7A481B5818A9F90019B
:1013E0008B9F300D9A9F300D1124620F731F078C55
:1013F000F0A1E02DE60FF71F4770552721E030E000
:1014000001C0220F4A95EAF78081822B80830895DC
:10141000CA0157FD079633E0959587953A95E1F710
:10142000A481B5818A9F90018B9F300D9A9F300DCA
:101430001124620F731F078CF0A1E02DE60FF71F38
:101440004770552781E090E001C0880F4A95EAF780
:10145000809590818923DACFCA0157FD079623E052
:10146000959587952A95E1F7A481B5818A9F90018A
:101470008B9F300D9A9F300D1124620F731F078CC4
:10148000F0A1E02DE60FF71F4770552721E030E06F
:1014900001C0220F4A95EAF780818227B7CF0895CD
:1014A0008EBD00000DB407FEFDCF8EB508958CBD36
:1014B0009DBD08950895FC016370668B84819581BC
:1014C00026813781613039F0633029F09187808738
:1014D00033872287089531872087938782870895ED
:1014E0002F923F924F925F926F927F928F929F9234
:1014F000AF92BF92CF92DF92EF92FF920F931F9322
:10150000CF93DF93CDB7DEB76A970FB6F894DEBFFF
:101510000FBECDBF9A8F898F7A8369834A01D22EFD
:1015200018870F833701BC2CDC0159962D913C9113
:101530005A972115310509F015C118968D919C9186
:101540001997681779070CF0D7C11A968D919C915D
:10155000481759070CF0D0C14C2C512CB6E0CB9E4B
:10156000600D711D11247C876B87161617060CF011
:10157000C3C1EA2DF0E0FA87E98793E0EE0FFF1F81
:101580009A95E1F7F88BEF87CF01840F951F181616
:1015900019060CF0B1C1A98DBA8D58968C918111A4
:1015A00004C0BFEABD1508F4D394A98DBA8DED919E
:1015B000FC9111970284F385E02DCD010995B5E0EA
:1015C000DB9EC0011124E981FA81FC83EB83312C7D
:1015D000212C9C0128553F4F388F2F8B4A2D50E0EE
:1015E0005E8B4D8BEF89F88DE20DF31D44919E8249
:1015F0008D82D12CC12C69817A81620D731D7A8B09
:10160000698B842F90E09C8B8B8BE98DFA8DA08168
:10161000B18140FF82C0F1E0BF126FC0AF126DC058
:101620001C96ED91FC912F813885A4014C0D5D1D18
:1016300069897A89898D9A8D0995EB89FC89F59557
:10164000E7954E2F5FEFC51AD50A6D817E818D8992
:101650009E89680F791F7E836D8398E0C916D10437
:1016600081F6AFEF2A1A3A0AEB81FC81E40DF51DF1
:10167000FC83EB83F5E02F16310409F0B3CF2F8103
:10168000388526153705B9F0A98DBA8DED91FC91F5
:10169000B1E0BB1257C0AB1255C069817A816B5F54
:1016A0007F4F0088F189E02D830128E030E0A4011C
:1016B000898D9A8D0995A98DBA8DED91FC9111971F
:1016C0000688F789E02DCD016A960FB6F894DEBF43
:1016D0000FBECDBFDF91CF911F910F91FF90EF9083
:1016E000DF90CF90BF90AF909F908F907F906F9042
:1016F0005F904F903F902F9009941E96ED91FC9132
:10170000EF80F88409851A8592014D815E816B8195
:101710007C81898D9A8D099590CF2F8138852615EA
:10172000370509F48ACF31E0B31207C0A31205C010
:101730001C96ED91FC91930178CF1E96ED91FC9152
:101740007301E0CF6B857C85641975090684F78584
:10175000E02D73010F8518899201A401898D9A8D5E
:101760000995A9CFF90134969491329745915491F6
:10177000D91AB7E0DB9E400D511D1124F9012591C6
:1017800034913C8B2B8BFA0125903490FA013296E0
:10179000749031963491398B32966490319644909E
:1017A00041E04C1518F04A1508F07FC0662D062C54
:1017B000000C770B7C836B83842D042C000C990B1D
:1017C0009E838D83A98DBA8DED91FC911197028432
:1017D000F385E02DCD010995512CD12CC12CEA2D9A
:1017E000F0E0FA87E9872B2D30E03C872B87A401B6
:1017F000440D511D47FC5A95588F4F8B69817A8152
:10180000660D711D67FC7A957E876D877989C7168D
:1018100008F051CF2C2D30E04D815E81420F531FD7
:10182000A985BA854A9FC0014B9F900D5A9F900D84
:101830001124FC01E80DF91DF88BEF87852D612C33
:101840004F89588D420F531F5E8B4D8B671408F0E4
:1018500050C044244394480E877041F4C10101965E
:10186000EB89FC89E20DF31DD4901C01D7FE19C051
:10187000A98DBA8DED91FC91662D70E0B1E0BB129F
:1018800019C0AB1217C02D853E85620F731F0484EB
:10189000F585E02D2F8138854D895E89898D9A8D5A
:1018A0000995DD0C6394842DD1CF1E821D821C828C
:1018B0001B8288CF4B815C81640F751FAB85BC8513
:1018C0006A9FC0016B9F900D7A9F900D11246981D2
:1018D0007A81680F791F0684F785E02DEF80F88400
:1018E00009851A859D014F855889898D9A8D09959D
:1018F000D8CF570CC3948ACF6A960FB6F894DEBF40
:101900000FBECDBFDF91CF911F910F91FF90EF9050
:10191000DF90CF90BF90AF909F908F907F906F900F
:101920005F904F903F902F9008958F929F92AF922B
:10193000CF92EF92FF920F931F93CF93DF93EC011F
:10194000262F898D9A8D009709F051C06A30D1F405
:101950001D861C868D8948E0849F900111248E8508
:101960009F85820F931F9F878E8781E090E0DF9194
:10197000CF911F910F91FF90EF90CF90AF909F90DC
:101980008F9008956D3089F3CC88AD888F89882336
:10199000C1F08C859D8536E0C39E800D911D11247C
:1019A000488559854817590764F44E855F851D861B
:1019B0001C8638E0A39EC0011124840F951F9F87C9
:1019C0008E87EA88FB88088919894E855F856C8532
:1019D0007D85CE010E94700A2C898C859D8546E00C
:1019E000249F800D911D11249D878C87BECF6A3066
:1019F00069F41D861C86FC013896E4912D898E853C
:101A00009F85E29F800D911D1124ADCF6D3009F4AB
:101A1000ACCFFC0134963491631708F4A6CF32960C
:101A2000E491E61708F4A1CFFC01329685909490DA
:101A3000462F431B342F47E0349F800C911C112408
:101A4000F401329634913196E4913323A9F1EE23D7
:101A500099F1CC88F4013596E491AD884F894423FF
:101A600001F10E2E000CFF0BE30FF11DCE9EA00125
:101A7000CF9E500D11246C857D85460F571F6885BC
:101A80007985641775076CF44E855F851D861C8605
:101A9000FC013896E491AE9E400D511D11245F87E4
:101AA0004E87EA88FB88088919894E855F856C8591
:101AB0007D85CE010E94700AF4013496E4912C8950
:101AC0008C859D85E29F800D911D11248DCF6F9295
:101AD0007F928F929F92AF92BF92CF92DF92EF92BE
:101AE000FF920F931F93CF93DF93EC016B015A0189
:101AF00039014801E881F9810284F385E02D0995D7
:101B0000E881F9810288F389E02D87019301A5011D
:101B1000B601CE010995A501480D591D4150510945
:101B2000E881F9810288F389E02D9301B601CE01A5
:101B30000995E881F9810088F189E02D9401A501DA
:101B4000B601CE010995C60CD71CB60161507109CA
:101B5000E881F9810088F189E02D9401A501CE0189
:101B60000995E881F9810688F789E02DCE01DF919A
:101B7000CF911F910F91FF90EF90DF90CF90BF908A
:101B8000AF909F908F907F906F9009946F927F920B
:101B90008F929F92AF92BF92CF92DF92EF92FF927D
:101BA0000F931F93CF93DF935C01EB016A0149010F
:101BB00038018701DC01ED91FC916217730719F57B
:101BC000641675062CF0962D872D3A01C92ED82E55
:101BD0009601261937092F5F3F4F048CF58DE02DB4
:101BE000A301BE01C5010995DF91CF911F910F910E
:101BF000FF90EF90DF90CF90BF90AF909F908F902D
:101C00007F906F9008954615570591F42617370772
:101C100024F0892D4B01C22FD82F9E012819390994
:101C20002F5F3F4F068CF78DE02DA601B401DACF70
:101C30000284F385E02D0995D501ED91FC9104888E
:101C4000F589E02D83019401A601BE01C501099526
:101C5000D501ED91FC910688F789E02DC501DF9152
:101C6000CF911F910F91FF90EF90DF90CF90BF9099
:101C7000AF909F908F907F906F900994EF92FF921A
:101C80000F931F93DC011A960D911C911B971896C8
:101C90002D913C911997ED91FC9100A0F1A1E02DBF
:101CA0007B0150E040E070E060E009951F910F91EA
:101CB000FF90EF9008954F925F926F927F928F9274
:101CC0009F92AF92BF92CF92DF92EF92FF920F93CB
:101CD0001F93CF93DF936C012B015A013901480107
:101CE000DC01ED91FC910284F385E02D0995E20180
:101CF000640C751CD601ED91FC91C615D7055CF4FA
:101D00000088F189E02D87019401A501BE01C6017B
:101D100009952196EFCF0688F789E02DC601DF915E
:101D2000CF911F910F91FF90EF90DF90CF90BF90D8
:101D3000AF909F908F907F906F905F904F9009949D
:101D40008F929F92AF92BF92CF92DF92EF92FF92CB
:101D50000F931F93CF93DF93EC015B014A0169015D
:101D6000E881F9810284F385E02D099595012C0D18
:101D70003D1D21503109E881F9810488F589E02D64
:101D800078018401A401B501CE010995E881F981AA
:101D90000688F789E02DCE01DF91CF911F910F9139
:101DA000FF90EF90DF90CF90BF90AF909F908F907B
:101DB00009948F929F92AF92BF92CF92DF92EF924F
:101DC000FF920F931F93CF93DF93EC015B014A01C6
:101DD00069017801E881F9810284F385E02D099594
:101DE000C80CD91C860101501109E881F9810488C9
:101DF000F589E02D9501A401B501CE010995E88191
:101E0000F9810688F789E02DCE01DF91CF911F91EE
:101E10000F91FF90EF90DF90CF90BF90AF909F9089
:101E20008F900994EF92FF920F931F93DC01ED9135
:101E3000FC9100A0F1A1E02D09951F910F91FF9059
:101E4000EF9008950F931F93DC01ED91FC91068CA8
:101E5000F78DE02D09951F910F9108950F931F9312
:101E6000DC01ED91FC91048CF58DE02D09951F911D
:101E70000F910895DC01ED91FC910084F185E02D36
:101E800009943F924F925F926F927F928F929F92AE
:101E9000AF92BF92CF92DF92EF92FF920F931F9378
:101EA000CF93DF935C017B014A016901390187E02F
:101EB000680E711C93E0759467949A95E1F72B0175
:101EC000400E511E10E000E0312CD0E0C0E0CE0109
:101ED00087709927330C892B59F4FE0183E0F5951F
:101EE000E7958A95E1F7E00FF11FE80DF91D3490B1
:101EF00037FE0AC021E030E0A701B5016C0F7D1F5D
:101F00008FE193E00E943A0F2196CC16DD06F9F698
:101F10008FEFE81AF80A060D171DE414F504A9F668
:101F2000DF91CF911F910F91FF90EF90DF90CF90B5
:101F3000BF90AF909F908F907F906F905F904F90E9
:101F40003F9008952F923F924F925F926F927F92AF
:101F50008F929F92AF92BF92CF92DF92EF92FF92B9
:101F60000F931F93CF93DF9300D000D000D0CDB755
:101F7000DEB73C016A013E832D83FC82EB8258016F
:101F8000A41AB50AB7FE03C0B194A194B1088D801C
:101F90009E80861A970A97FE03C0919481949108B7
:101FA0008A149B045CF0902F812F0D811E819D83EC
:101FB0008E839C2D8D2D6B01692F782F0C151D059F
:101FC0005CF09D818E817E836D83692F782F902FA9
:101FD000812F8601C92ED82E1601201A310A2B0115
:101FE0002D813E81421A530A57FE03C051944194F9
:101FF0005108710137FE03C03FEFE31AF30AF5946D
:10200000E7948D819E81861797075CF5A1E0B0E08B
:10201000BA83A983C016D1064CF1D301ED91FC918E
:102020000484F585E02D2B813C81A8016D817E81A2
:102030008A149B041CF04D815E81B801C30109958F
:10204000E418F508F7FE0AC02D813E8189819A8146
:10205000280F391F3E832D83E20CF31C0F5F1F4FA7
:10206000D9CF2FEF3FEF3A832983D4CF26960FB6EF
:10207000F894DEBF0FBECDBFDF91CF911F910F91BE
:10208000FF90EF90DF90CF90BF90AF909F908F9098
:102090007F906F905F904F903F902F90089508959C
:1020A00020912402260F3327331F21323105ECF40F
:1020B00020914802FC0190E080E0243069F082E049
:1020C0000895A09124022191AC014C5F5D4FA40FB3
:1020D000B52FB11D2C930196861798F38091240299
:1020E000680F6093240280E0089581E008959B01C9
:1020F000AC0160E074E284EF90E00E94D2222051B3
:1021000031094109510956954795379527952093EF
:10211000B80008951092480281E080934A0210921C
:10212000490261E082E10E94430761E083E10E948D
:102130004307E9EBF0E080818E7F808380818D7F93
:10214000808388E48093B80085E48093BC00089580
:10215000CF93DF9391E0909303028823B9F0C0916D
:10216000B800D091BA008091BC008A7B8093BC00FB
:1021700060E082E10E94430760E083E10E94430740
:102180000E948A10D093BA00C093B800DF91CF911B
:102190000895E091790280917802E81730F4F0E038
:1021A000E252FE4F808190E008958FEF9FEF0895F7
:1021B00090917902809178022FEF3FEF981748F4C1
:1021C000E92FF0E0E252FE4F208130E09F5F9093D4
:1021D0007902C90108958091780290917902891B52
:1021E000990B0895CF92DF92EF92FF920F931F9376
:1021F000CF93DF937C01CB018A0120917D022223C2
:1022000089F0EB016B01C40ED51ECC15DD0569F01C
:102210006991D701ED91FC910190F081E02DC7010A
:102220000995F3CF642F0E945010C801DF91CF9120
:102230001F910F91FF90EF90DF90CF900895CF9373
:10224000DF931F92CDB7DEB7698320917D022223F1
:10225000F9F020917A02203258F021E030E0FC01C0
:102260003383228390E080E00F90DF91CF91089537
:1022700080917B02E82FF0E0E254FE4F9981908339
:102280008F5F80937B0280937A0281E090E0ECCFB5
:1022900061E0CE0101960E945010F7CFCF92DF92FD
:1022A000EF92FF920F931F93CF93DF93D0917A0217
:1022B00081E0D13208F09CC0C0917C020E94A2074C
:1022C0006B017C018091480281116CC082E0809397
:1022D000480281E080934A028FEF80934702109278
:1022E0006C02D0936B02AEEBB1E0EBE4F2E080E085
:1022F000D8138DC010926D0280916D02CC0FC82B47
:10230000C0936D0280914902813009F084C010921F
:1023100049020E94A2076B017C0180916D028093AB
:10232000BB008091FF0190910002A0910102B09149
:102330000202892B8A2B8B2BA1F00E94A20700910D
:10234000FF011091000220910102309102026C19EC
:102350007D098E099F09061717072807390708F412
:1023600042C08091BC0083FDD8CF85EC8093BC0037
:102370000E94A2076B017C0180914802823009F41F
:102380004CC0809147028F3F09F469C08091470299
:10239000803209F466C080914702803309F463C03B
:1023A00084E026C08091FF0190910002A09101027B
:1023B000B0910202892B8A2B8B2B09F483CF0E94C8
:1023C000A2070091FF0110910002209101023091BB
:1023D00002026C197D098E099F0906171707280745
:1023E000390708F06FCF8091FE010E94A81085E0A8
:1023F00010927B0210927A0210927D02DF91CF91AF
:102400001F910F91FF90EF90DF90CF9008959D91D5
:1024100091938F5F6DCF85EEA9CF8091FF01909151
:102420000002A0910102B0910202892B8A2B8B2B12
:1024300009F4A2CF0E94A2070091FF0110910002AF
:1024400020910102309102026C197D098E099F09C9
:10245000061717072807390708F08ECFC4CF80E08A
:10246000C7CF82E0C5CF83E0C3CFFF920F931F9306
:10247000CF93DF93F82ED92FC62F80913C039091F4
:102480003D03009709F452C02091400331E030939E
:102490007D0220937C0210927B0210927A02DC0172
:1024A000ED91FC910190F081E02D60E009950F2DF8
:1024B0001D2FD1E0FF24F394C15080913C039091F3
:1024C0003D03CF3F61F1D032C8F00E944E118091A0
:1024D0003C0390913D0320914003F0927D022093B4
:1024E0007C0210927B0210927A02DC01ED91FC9149
:1024F0000190F081E02D60E00995D1E080913C03EE
:1025000090913D03F8016491DC01ED91FC91019003
:10251000F081E02D0995DF5F0F5F1F4FCDCFDF9179
:10252000CF911F910F91FF900C944E11E0914C03AD
:10253000F0914D039081809152038095892380838F
:102540000F2D1D2FC15008F438C0F801849120913F
:102550003A0330913B03232B29F00E94500A0F5F6E
:102560001F4FF0CF28E030E040E8E0914803F091C1
:10257000490390915003582F5423D9F05081952B43
:102580009083E0914A03F0914B0390815091510365
:10259000952B9083E0914A03F0914B0350819091E9
:1025A0005103909595239083469521503109E9F682
:1025B000D6CF508190959523E3CFDF91CF911F9196
:1025C0000F91FF9008951F93CF93DF93EC018D8DB2
:1025D0009E8D009721F1162F29A131E030937D02C5
:1025E00020937C0210927B0210927A02DC01ED9122
:1025F000FC910190F081E02D60E009958D8D9E8D1C
:10260000DC01ED91FC910190F081E02D612F0995A5
:102610008D8D9E8DDF91CF911F910C944E11ADA5A4
:10262000BEA59C918BA9809589238C938B8D9C8DC5
:10263000892B31F0862FDF91CF911F910C94500A96
:1026400028E030E080E8A9A5BAA599A9462F48233B
:10265000C1F04C91942B9C93ABA5BCA59C914AA92D
:10266000942B9C93ABA5BCA54C919AA990959423CF
:102670009C9386952150310931F7DF91CF911F91BD
:1026800008954C9190959423E6CFEF92FF920F938B
:102690001F93CF93DF9380913C0390913D03892B4F
:1026A00009F485C0609154037091550380915603DD
:1026B000909157030E94771065E084EE9AE00E94A3
:1026C00035126091230361508FE193E00E94E31281
:1026D0002091250330912603C901079697FD07969F
:1026E00023E0959587952A95E1F720912303309172
:1026F0002403829F8001839F100D929F100D11244F
:10270000C0913E03D0913F0380913C0390913D03E3
:102710000C0F1D1F009709F47AC02091400331E08F
:1027200030937D0220937C0210927B0210927A02F9
:10273000DC01ED91FC910190F081E02D60E40995C0
:10274000FF24F394EE24E39480913C0390913D03A5
:102750000C171D0709F442C0BFE1BF15D0F40E9459
:102760004E1180913C0390913D0320914003E092F3
:102770007D0220937C0210927B0210927A02DC018F
:10278000ED91FC910190F081E02D60E40995FF242A
:10279000F39480913C0390913D036991DC01ED91AC
:1027A000FC910190F081E02D0995F394CDCF8091BB
:1027B0003A0390913B03892B31F080915D03909116
:1027C0005E030E94570AE0914E03F0914F039081FF
:1027D000809153038095892380836ECF0E944E1190
:1027E00080913C0390913D03892B09F451C0609185
:1027F00058037091590380915A0390915B03DF91C4
:10280000CF911F910F91FF90EF900C947710E09172
:102810004C03F0914D03808190915203892B80836A
:102820000C171D07E9F2899120913A0330913B037F
:10283000232B19F00E94500AF3CF28E030E040E843
:10284000E0914803F091490390915003582F54238D
:10285000D9F05081952B9083E0914A03F0914B037E
:10286000908150915103952B9083E0914A03F09110
:102870004B035081909151039095952390834695F9
:1028800021503109E9F6CCCF508190959523E3CFC3
:10289000E0914E03F0914F03808190915303892B77
:1028A0008083DF91CF911F910F91FF90EF9008955A
:1028B0001F93CF93DF93EC01162F8D8D9E8D892B67
:1028C000C9F06DA97EA98FA998AD0E94771066EA1C
:1028D000111167EACE010E94E3128D8D9E8D892B26
:1028E000C9F069AD7AAD8BAD9CADDF91CF911F91F1
:1028F0000C9477108B8D9C8D892B21F08EAD9FAD24
:102900000E94570AEFA5F8A990818CA98095892388
:102910008083DDCFEFA5F8A980819CA9892B8083D6
:10292000DF91CF911F91089590E080E00895CF93BB
:10293000C82F61E00E947107EC2FF0E0E053F54FE3
:10294000E491E33049F148F4E130C9F0E230F1F0CC
:1029500060E08C2FCF910C944307E73049F1E830C9
:1029600081F1E430A9F7809180008062809380003B
:1029700087E390E090938B0080938A0005C084B534
:10298000806884BD87E387BDCF91089584B5806258
:1029900084BD87E388BDF8CF8091800080688093F4
:1029A000800087E390E09093890080938800ECCFCB
:1029B0008091B00080688093B00087E38093B3007B
:1029C000E3CF8091B00080628093B00087E3809372
:1029D000B400DACF2091250330912603C901079670
:1029E00097FD079623E0959587952A95E1F7209125
:1029F000230330912403829FA001839F500D929F57
:102A0000500D112470E060E080913E0390913F03EF
:102A10000C946B25FB0101900020E9F73197AF0181
:102A2000461B570BDC01ED91FC910280F381E02DF8
:102A30000994CF93DF93EC010E94EA1481E0809324
:102A400033038093340381E090E0909332038093CA
:102A500031039093300380932F038AE090E09093AA
:102A60002C0380932B0384E090E090932E038093BB
:102A70002D034C815D81688179818FE193E00E9413
:102A8000A4056AE471E08FE193E00E940A15809149
:102A90003C0390913D03892BE9F1609154037091BF
:102AA000550380915603909157030E94771062E07E
:102AB00086EA90E00E94351260E08FE193E00E9488
:102AC000E31260E08FE193E00E94E3126FEF8FE189
:102AD00093E00E94E31263E083EA90E00E943512E3
:102AE00080913C0390913D03892B59F160915803EB
:102AF0007091590380915A0390915B030E94771063
:102B00000E94451360ED77E080E090E0DF91CF9187
:102B10000C94C70780913A0390913B03892B31F0C5
:102B200080915D0390915E030E94570AE0914E03ED
:102B3000F0914F0390818091530380958923808386
:102B4000B6CFE0914E03F0914F03808190915303F3
:102B5000892B8083D5CF85ED8093BC008091FF01C8
:102B600090910002A0910102B09102020796A11D6E
:102B7000B11D23E0B695A795979587952A95D1F72E
:102B80002091BC0024FD03C010924802089540919A
:102B9000FF01509100026091010270910202452BE9
:102BA000462B472B69F30097A105B10541F025E3BA
:102BB0002A95F1F700000197A109B109E1CF8091B1
:102BC000FE010C94A810FC0180819181009711F006
:102BD0000C94172408950E945D250F931F93CF93A3
:102BE000DF93EC0188819981009759F02A813B811C
:102BF0002617370730F081E0DF91CF911F910F91B9
:102C000008958B016F5F7F4F0E94A024009759F0B9
:102C1000998388831B830A832C813D81232B59F759
:102C2000FC011082E8CF80E0E7CFEF92FF920F9394
:102C30001F93CF93DF93EC017B018A01BA010E94BD
:102C4000ED1528813981811114C02115310519F044
:102C5000C9010E941724198218821D821C821B82BE
:102C60001A82CE01DF91CF911F910F91FF90EF90CB
:102C700008951D830C83B701C9010E947225F1CF0D
:102C80008F929F92AF92BF92CF92DF92EF92FF927C
:102C90000F931F93CF93DF93CDB7DEB7FE013F961F
:102CA000A190B1908F01450180E1880E911CC12C4B
:102CB000D12C7601F50161917191819191915F0122
:102CC000F80121913191419151918F010E94CF21C1
:102CD0009B01AC01C701B6010E9404236B017C017A
:102CE0008A149B0439F7DF91CF911F910F91FF90C8
:102CF000EF90DF90CF90BF90AF909F908F9008950E
:102D00001F920F920FB60F9211242F933F934F9360
:102D10005F936F937F938F939F93AF93BF93EF9343
:102D2000FF9382E892E00E946206FF91EF91BF91CB
:102D3000AF919F918F917F916F915F914F913F9153
:102D40002F910F900FBE0F901F9018951F920F920A
:102D50000FB60F9211242F938F939F93EF93FF93AE
:102D6000E0919202F09193028081E0919802F091BB
:102D7000990282FD1BC0908180919B028F5F8F73AF
:102D800020919C02821741F0E0919B02F0E0EE5707
:102D9000FD4F958F80939B02FF91EF919F918F91B3
:102DA0002F910F900FBE0F901F9018958081F4CF38
:102DB0001F920F920FB60F9211242F933F938F9370
:102DC0009F93AF93BF9380917E0290917F02A091D9
:102DD0008002B091810230916E0223E0230F2D37E3
:102DE00058F50196A11DB11D20936E0280937E02BD
:102DF00090937F02A0938002B093810280916F0232
:102E000090917002A0917102B09172020196A11D81
:102E1000B11D80936F0290937002A0937102B093E2
:102E20007202BF91AF919F918F913F912F910F901F
:102E30000FBE0F901F90189526E8230F0296A11D34
:102E4000B11DD2CF1F920F920FB60F9211242F9364
:102E50003F934F935F936F937F938F939F93AF9322
:102E6000BF93EF93FF938091B900887F803609F478
:102E70004AC0F0F5883209F4A7C018F5803109F48A
:102E80009BC0B8F4882309F4F9C0883009F494C0D1
:102E9000FF91EF91BF91AF919F918F917F916F9132
:102EA0005F914F913F912F910F900FBE0F901F9008
:102EB0001895883109F488C0803251F78093470211
:102EC00014C0803409F49DC040F48033B9F38833D2
:102ED000F9F68093470285ECB0C0803509F485C0CF
:102EE000883509F496C0883499F60E94AB15D0CF86
:102EF000883909F48CC038F5883729F050F48836C1
:102F000011F0803729F683E0809348021092460240
:102F100057C0883809F47BC0803919F0803809F02F
:102F2000B7CF80914602803208F071C0E09146022E
:102F300081E08E0F809346028091BB00F0E0EA5D55
:102F4000FD4F80833DC0803B39F0E0F4803A09F4C6
:102F500079C0883A09F09CCF84E0809348021092AF
:102F6000250210922402E0917602F09177020995F1
:102F70008091240281110FC081E08093240210927D
:102F8000040209C0803C09F4A6CF883C09F4A3CF11
:102F9000883B09F07DCFE091250281E08E0F809380
:102FA0002502F0E0EC5FFD4F80818093BB009091A3
:102FB00025028091240229C080916D028093BB007C
:102FC00085EC8093BC0064CF90916C0280916B0281
:102FD000981758F5E0916C0281E08E0F80936C0297
:102FE000F0E0E55BFD4F8081E9CFE0916C0281E08C
:102FF0008E0F80936C028091BB00F0E0E55BFD4F8B
:10300000808390916C0280916B029817C8F285E8DA
:10301000D8CFE0916C0281E08E0F80936C0280919A
:10302000BB00F0E0E55BFD4F808380914A02811197
:103030005CCF81E08093490284EA8093BC001092C7
:10304000480226CF85EC8093BC0010924802809104
:103050004602803230F4E0914602F0E0EA5DFD4F36
:1030600010826091460270E0E0917402F091750266
:1030700086E292E00995109246020ACF109247022A
:1030800034CFE2E8F2E01382128288EE93E0A0E00F
:10309000B0E084839583A683B78380E191E0918338
:1030A000808385EC90E09587848784EC90E0978717
:1030B000868780EC90E0918B808B81EC90E0938B05
:1030C000828B82EC90E0958B848B86EC90E0978BE2
:1030D000868B118E128E138E148EEFE1F3E0138225
:1030E000128220E830E03583248380E490E09783E7
:1030F00086833187208793878287168A1586148670
:103100001786168681E0858B848B2FEF3FEF338BFC
:10311000228B318B208B878B108E128E118E82E248
:1031200091E091838083148E138E168E158E10A2DB
:10313000178E85E084A386E085A387E086A388E0D8
:1031400087A389E080A780E586AF17AE0895CF9367
:10315000DF93CDB7DEB7C255D1090FB6F894DEBF05
:103160000FBECDBF789484B5826084BD84B5816084
:1031700084BD85B5826085BD85B5816085BD809142
:103180006E00816080936E001092810080918100BA
:1031900082608093810080918100816080938100B2
:1031A000809180008160809380008091B100846074
:1031B0008093B1008091B00081608093B0008091D5
:1031C0007A00846080937A0080917A008260809394
:1031D0007A0080917A00816080937A0080917A00F1
:1031E000806880937A001092C100E0919202F09181
:1031F000930282E08083E0918E02F0918F02108230
:10320000E0919002F09191028FEC808310929A02EB
:10321000E0919602F091970286E08083E09194021B
:10322000F0919502808180618083E0919402F09119
:103230009502808188608083E0919402F0919502EC
:10324000808180688083E0919402F0919502808172
:103250008F7D808380913E0390913F03892B11F1F4
:103260000E94EA14209125033091260380912303C4
:1032700090912403213231050CF04BC0B90160520A
:10328000710977FF02C06F5F7F4F75956795835710
:10329000910997FD019600E210E023E730E040E15C
:1032A00056E04AC02091250330912603C9010796B4
:1032B00097FD0796B3E095958795BA95E1F720912C
:1032C000230330912403AC01429FC001439F900D22
:1032D000529F900D11240E947B2390933F03809373
:1032E0003E03892B09F0BCCF00EB1AE0F801649192
:1032F000662341F082E892E00E9484060F5F1F4F30
:10330000892BA1F76AE471E082E892E00E940A1535
:10331000FFCFB9016054710977FF02C06F5F7F4F23
:10332000759567958255910997FD019600E410E027
:1033300022E530E040EF57E0959587950E94410FD8
:1033400082E08093410380913C0390913D03892B5F
:1033500009F422C18091250390912603809709F4F6
:1033600019C18DE380934003109279021092780284
:1033700010927B0210927A020E948A1082EA95E0F3
:10338000909377028093760283EA95E0909375029A
:10339000809374028091470387FD1EC061E00E9404
:1033A000710761E0809147030E94430761E070E08C
:1033B00080E090E00E94C70760E0809147030E9490
:1033C00043076AE070E080E090E00E94C70761E098
:1033D000809147030E94430780913C0390913D03F5
:1033E000892B09F498C16091540370915503809121
:1033F0005603909157030E94771064E08AED95E0A0
:103400000E9435126091250361508FE193E00E9484
:10341000E31264E086ED95E00E943512809141034D
:1034200064E1813009F460E18FE193E00E94E312EE
:1034300064E082ED95E00E9435128FE880935C0392
:1034400080912303909124038038910509F07CC179
:1034500080912503909126038034910509F084C161
:1034600080914103813009F46DC18FEC80935C033E
:1034700012E16AED8FE193E00E94E312612F8FE188
:1034800093E00E94E31261E88FE193E00E94E3126F
:1034900060915C038FE193E00E94E31269ED8FE19C
:1034A00093E00E94E3128091410361EF813009F4BF
:1034B00062E28FE193E00E94E31266E08CEC95E01B
:1034C0000E94351280913C0390913D03892B09F4B1
:1034D0004FC1609158037091590380915A039091A4
:1034E0005B030E9477100E9445130E94EA1460E07B
:1034F00083E00E94710760E084E00E94710761E050
:103500008CE00E94710761E08DE00E94710761E02C
:103510008AE00E94710761E08BE00E9471079E01C2
:103520002F5E3F4F3A8F298FAE014F5F5F4F1A01D9
:10353000EFE3AE2E83E00E941A078C0184E00E9424
:103540001A070130110509F01DC1892B09F075C159
:103550001A8219821C821B821E821D8241E150E068
:1035600065E571E0C1010E941516C1010E9419159F
:10357000C1010E94E3158CE00E94971460E08DE089
:103580000E94430760E08AE00E9443078BE00E94AC
:1035900097141FC18CE3E6CE61E0809145030E9441
:1035A000710761E0809146030E9471078091450395
:1035B000082E000C990BFC01E450FA4FE491F0E066
:1035C000EE0FFF1FEE50FA4F2591349130934D03CB
:1035D00020934C03FC01E252FA4FE491E093520332
:1035E00080914603082E000C990BFC01E450FA4F21
:1035F000E491F0E0EE0FFF1FEE50FA4FA591B49169
:10360000B0934F03A0934E03FC01E252FA4FE491B2
:10361000E09353038C91E82BEC9380913A039091C3
:103620003B03892B09F434C01FB7F89480917302CF
:10363000811127C0E6E0F6E08491E8EEF5E0949190
:10364000E82FF0E0EE0FFF1FEE53FA4FA591B49173
:10365000EC91E92321F461E08AE00E94430761E0F4
:103660008AE00E9471078CB580618CBD8CB5806446
:103670008CBD61E08DE00E94710761E08BE00E94EB
:103680007107809173028F5F809373021FBF82CE98
:1036900061E0809143030E94710761E080914403DF
:1036A0000E94710780914303082E000C990BFC01C6
:1036B000E450FA4FE491F0E0EE0FFF1FEE50FA4FA6
:1036C000259134913093490320934803FC01E25241
:1036D000FA4FE491E093500380914403082E000CCC
:1036E000990BFC01E450FA4FE491F0E0EE0FFF1F5C
:1036F000EE50FA4FA591B491B0934B03A0934A03B7
:10370000FC01E252FA4FE491E09351038C91E09571
:10371000E823EC933FCE80913A0390913B03892BB1
:1037200031F080915D0390915E030E94570AE09111
:103730004E03F0914F03908180915303809589232C
:1037400080835BCE8FE992CE8036910569F48091BB
:10375000250390912603409739F4809141038130ED
:1037600029F08FEA80935C0312E083CE80E1FACFE8
:10377000E0914E03F0914F03808190915303892B88
:103780008083B1CE012B09F058C0019709F055C0D4
:103790001A8219821C821B821E821D8241E150E026
:1037A00067E671E0C1010E941516C1010E9419155A
:1037B000C1010E94E31560E08CE00E9443078DE0A8
:1037C0000E9497148AE00E94971460E08BE00E94A8
:1037D0004307EAECFAE08091C00085FFFCCF8491BA
:1037E0008093C6008091C00085FFFCCF3196849104
:1037F0008111F1CF4B9BFECF4B99FECF21EF30E0F3
:103800002150310909F44CC041E451E041505109C3
:10381000B9F34A99FECF86B199B18F70907F892B09
:103820008093C6008091C00085FFFCCF4A9BFECFED
:103830004A99FECF4A9BFECFE9CF1A8219821C8299
:103840001B821E821D8264E170E0C1010E94ED15A1
:1038500029813A8181111AC02115310519F0C90158
:103860000E9417241A8219821E821D821C821B82CA
:10387000C1010E941915C1010E94E31560E08CE0AE
:103880000E9443078DE00E9497147CCE84E190E073
:103890009E838D8369E771E0C9010E947225E8CF9C
:1038A0005FEF81EE94E0515080409040E1F700C01E
:1038B000000082E892E00E944206892B09F46DC361
:1038C00071011A8A198A1C8A1B8A1E8A1D8A50E075
:1038D00040E06CE471E0CE0141960E9415160E9412
:1038E000F40597FD1EC08C329105D9F08F8B188E90
:1038F0000D891E890F5F1F4FB801CE0141960E94AE
:10390000ED15882361F329893A898D899E89BE0145
:10391000695E7F4F820F931F0E9472251E8B0D8B55
:10392000DECF89899A890E94F41FF7016193719310
:10393000819391937F01CE0141960E94E315298DD9
:103940003A8D2E153F0509F0BCCF6EE871E082E894
:1039500092E00E940A15E98DFA8D26E011922A95CF
:10396000E9F7AF9240EC642E6F921F921F9210E421
:103970001F935CE9752E7F926CECD62EDF927DEC66
:10398000B72EBF921F93E6E44E2E4F92F6E6FF2E1F
:10399000FF92FF921F938CED8F93DF92BF923F9225
:1039A0002F920E9440166BA37CA38DA39EA3AF927F
:1039B00086EA8F93FF92FF921F93A0E95A2E5F929F
:1039C0001F921F921F9303E30F930F930F931F9365
:1039D00036EB3F93FF92FF923F922F920E94401648
:1039E0006FA378A789A79AA70FB6F894DEBF0FBE7A
:1039F000CDBFAF92DF92DF92BF921F93B6E9CB2E7D
:103A0000CF92FF92FF921F9383E5E82EEF920F93E0
:103A10000F931F9389EC8F9399E9992E9F922AE92E
:103A2000822E8F923F922F920E9440166BA77CA706
:103A30008DA79EA7AF9280E88F931F921F921F932E
:103A4000EF920F930F931F9389E18F939F928F9221
:103A50001F937F92DF92BF923F922F920E94401657
:103A60006FA778AB89AB9AAB0FB6F894DEBF0FBEE9
:103A7000CDBFAF9233EBE32EEF920F930F931F93D3
:103A8000CF92FF92FF921F9389E38F939F928F9221
:103A90001F9383EC8F930F930F933F922F920E946B
:103AA00040166BAB7CAB8DAB9EABAF926F921F920F
:103AB0001F921F935F921F921F921F931F931F923B
:103AC0001F921F93EF920F930F933F922F920E949A
:103AD00040166FAB78AF89AF9AAF0FB6F894DEBFE0
:103AE0000FBECDBFAF926F921F921F921F935F9236
:103AF0001F921F921F93FCE0FF93DF92BF921F93D0
:103B000086EC8F93FF92FF923F922F920E94401675
:103B10006BAF7CAF8DAF9EAFAF9249EDC42ECF920D
:103B20009F928F921F935F921F921F921F9380E22A
:103B30008F931F921F921F937F92DF92BF923F92AB
:103B40002F920E9440166B8F7C8F8D8F9E8F0FB6A9
:103B5000F894DEBF0FBECDBF1F931F921F921F921E
:103B60001F9383EA8F930F930F931F935CE4752E3B
:103B70007F92DF92BF921F9360EDE62EEF921F922D
:103B80001F923F922F920E94401623966CAF7DAFFA
:103B90008EAF9FAF2397AF9283EF8F930F930F93C7
:103BA0001F9389EA8F939F928F921F938CE28F933A
:103BB000DF92BF921F93DF92DF92BF923F922F92CC
:103BC0000E94401627966CAF7DAF8EAF9FAF2797B0
:103BD0000FB6F894DEBF0FBECDBFAF9286EE8F93C7
:103BE000FF92FF921F9380EB8F931F921F921F9360
:103BF0001F931F921F921F93EF921F921F923F924B
:103C00002F920E9440162B966CAF7DAF8EAF9FAF68
:103C10002B97AF926F921F921F921F9380EA8F9300
:103C20001F921F921F935CE05F93DF92BF921F93DE
:103C30006F921F921F923F922F920E9440162F96D2
:103C40006CAF7DAF8EAF9FAF2F970FB6F894DEBFEE
:103C50000FBECDBF7EE3E72EEF927F92DF92BF9241
:103C6000AF926F921F921F921F934F92FF92FF92FB
:103C70001F9383E98F930F930F933F922F920E948C
:103C800040166F8F78A389A39AA3EF92DF92DF92F9
:103C9000BF92AF92CF929F928F921F9389E78F939B
:103CA0009F928F921F938CEA8F93DF92BF923F92E5
:103CB0002F920E9440162B013C010FB6F894DEBFF4
:103CC0000FBECDBFEF929F929F928F92AF92CF92F5
:103CD0009F928F921F9383E78F930F930F931F935E
:103CE000F6EBFF93FF92FF923F922F920E944016B5
:103CF00063966CAF7DAF8EAF9FAF639727EE36EFC5
:103D000043E35EE36B8D7C8D8D8D9E8D0E94CF2174
:103D100029EB3BE44AE95FE30E9403236B017C014A
:103D20002FE33EE649EB5DEB6F8D78A189A19AA167
:103D30000E94CF219B01AC01C701B6010E94042360
:103D40006B017C0120E93FE74EEA5DEBC301B20164
:103D50000E94CF219B01AC01C701B6010E94042340
:103D60006B017C012DEE3AE94EE55FE36BA17CA18E
:103D70008DA19EA10E94CF212AE236EC44EB50E4B3
:103D80000E9404232B013C0126E732E847E85DE36B
:103D90006FA178A589A59AA50E94CF219B01AC01AE
:103DA000C301B2010E9404232B013C012DE13EE43A
:103DB0004AE55FE36BA57CA58DA59EA50E94CF215A
:103DC0009B01AC01C301B2010E9404232BA93CA9B1
:103DD0004DA95EA90E9404232FA938AD49AD5AAD63
:103DE0000E9404232BAD3CAD4DAD5EAD0E9404237B
:103DF0002B8D3C8D4D8D5E8D0E94032323962CAD23
:103E00003DAD4EAD5FAD23970E9403232B013C01D6
:103E100028E539ED49E45FEB27966CAD7DAD8EADBD
:103E20009FAD27970E94CF219B01AC01C301B20136
:103E30000E9404232B962CAD3DAD4EAD5FAD2B976C
:103E40000E9403232F962CAD3DAD4EAD5FAD2F9755
:103E50000E94032311E00FB6F894DEBF0FBECDBF62
:103E600020E030E0A9010E94702318160CF010E049
:103E7000E1E01E27E12FF0E0EE0FFF1FE20DF31D42
:103E800041E050E0518B408B23E03BEE47EE5EE398
:103E90006FA578A989A99AA90E94CF2128EE3CE3B1
:103EA00042EB5FE30E9403232B013C0126E530EF48
:103EB00042EC5EEB6F8D78A189A19AA10E94CF217F
:103EC0009B01AC01C301B2010E9404232B013C0100
:103ED00023EB3AEE43E95DEB63966CAD7DAD8EADC1
:103EE0009FAD63970E94CF219B01AC01C301B2013A
:103EF0000E94042320E030E0A9010E947023E2E048
:103F0000F0E0181614F4F0E0E0E0EE0FFF1FE20D11
:103F1000F31D808991890196918B808B20E030E0A0
:103F2000A901C701B6010E947023E2E0F0E0181673
:103F300014F4E1E0F0E0EE0FFF1FE20DF31D8089C5
:103F400091890196918B808B89899A89E0E097FF0E
:103F500003C0EFEF8FEF9FEF2B893C898217930708
:103F600014F4C901E1E02D893E898217930744F5D5
:103F7000E2E0F0E0EE0FFF1FEA5FFE4F608171812B
:103F80006115710521F082E892E00E940A156AE449
:103F900071E082E892E00E940A1564E670E080E039
:103FA00090E00E94C70780E090E0892B09F4C2CA24
:103FB0000E944E06882309F4B7CA0E940000B4CAC2
:103FC000E330B8F26DE471E0DECF82E291E09093ED
:103FD000200380931F0380913E0390913F0300973D
:103FE00011F00C9417240895662777270C94F81F76
:103FF000B0E0A0E0EEEFFFE10C94A1225C017B01B8
:104000006115710519F0DB018D939C9385010F5F9C
:104010001F4FF501D0818D2F90E00E9448216C0147
:10402000892BB9F5DD32B9F50F5F1F4FD501119618
:10403000DC91C1E05801F1E0AF1AB10843E050E073
:1040400060E770E0C5010E945121892B69F5680184
:1040500082E0C80ED11C45E050E06BE670E0C6017E
:104060000E945121892B21F4680197E0C90ED11CCF
:10407000E114F10419F0D701CD92DC9260E070E018
:1040800080E89FEFC111FFC060E070E080E89FE72B
:10409000FAC05801BBCFDB3229F485010E5F1F4FF8
:1040A000F501D181C0E0C6CF43E050E068E670E0A2
:1040B000C5010E945121892BE9F0F80110E000E0D0
:1040C00020E030E0A9015F01B0ED8B2E8D0E89E07C
:1040D0008815C8F19C2E689491F88C2F8870C2FFC7
:1040E00016C0811102C00F5F1F4F3196D501DC91C0
:1040F000C92DE9CFE114F10429F00E5F1F4FF7013C
:104100001183008360E070E080EC9FE7BCC08823EF
:1041100011F001501109A5E0B0E00E9490229B012E
:10412000AC01220F331F441F551F280D311D411DA7
:10413000511D283999E93907490799E15907A8F22A
:10414000C6609C2ED2CFAEEF8A1206C0C3FD3CC023
:104150009C2E689493F8C9CFDF7DD534A9F5808172
:104160008D3239F4C061DF011296818162E070E026
:1041700006C0DF018B32C1F3119661E070E080531D
:104180005D01A61AB70A8A30F8F4E0E8CE16ECE032
:10419000DE065CF4B601660F771F660F771FC60E4A
:1041A000D71ECC0CDD1CC80ED11C5D01FFEFAF1A71
:1041B000BF0A8C9180538A30A8F1C4FF03C0D19408
:1041C000C194D1080C0D1D1DC1FF09C0E114F104FB
:1041D00031F081E0A81AB108D701AD92BC92CA01B2
:1041E000B9010E946E21C370C33009F490584B018D
:1041F0005C0120E030E0A9010E946921882309F4D4
:1042000040C0CFE9D0E017FF05C011950195110915
:10421000C7E8D0E06E01B8E1CB1AD10880E2E82E01
:10422000F12C0FC0D501B1CFFE01259135914591FB
:1042300054910E191F09C501B4010E94CF214B01F1
:104240005C01D501C4010E151F0574F72497F59480
:10425000E794CC16DD06A9F78A2F880F8B2F881FCD
:104260008F3F49F020E030E0A901C501B4010E9470
:104270006921811106C082E290E0909360038093EF
:104280005F03C501B401CDB7DEB7ECE00C94BD22ED
:1042900091110C943C22803219F089508550C8F756
:1042A0000895FB01DC014150504088F08D9181342C
:1042B0001CF08B350CF4805E659161341CF06B351D
:1042C0000CF4605E861B611171F3990B0895881BD5
:1042D000FCCF0E94AB2108F481E00895E89409C066
:1042E00097FB3EF490958095709561957F4F8F4F29
:1042F0009F4F9923A9F0F92F96E9BB279395F6953F
:10430000879577956795B795F111F8CFFAF4BB0FBC
:1043100011F460FF1BC06F5F7F4F8F4F9F4F16C020
:10432000882311F096E911C0772321F09EE8872FAA
:10433000762F05C0662371F096E8862F70E060E066
:104340002AF09A95660F771F881FDAF7880F9695DF
:10435000879597F90895990F0008550FAA0BE0E883
:10436000FEEF16161706E807F907C0F01216130637
:10437000E407F50798F0621B730B840B950B39F477
:104380000A2661F0232B242B252B21F408950A26DD
:1043900009F4A140A6958FEF811D811D08950E940B
:1043A000E2210C9456220E94482238F00E944F22AB
:1043B00020F0952311F00C943F220C9445221124F7
:1043C0000C948A220E94672270F3959FC1F3950F87
:1043D00050E0551F629FF001729FBB27F00DB11D89
:1043E000639FAA27F00DB11DAA1F649F6627B00D19
:1043F000A11D661F829F2227B00DA11D621F739F02
:10440000B00DA11D621F839FA00D611D221F749F0F
:104410003327A00D611D231F849F600D211D822F56
:10442000762F6A2F11249F5750409AF0F1F088237D
:104430004AF0EE0FFF1FBB1F661F771F881F9150AA
:104440005040A9F79E3F510580F00C943F220C94F8
:104450008A225F3FE4F3983ED4F38695779567957B
:10446000B795F795E7959F5FC1F7FE2B880F911DD4
:104470009695879597F9089599278827089597F92C
:104480009F6780E870E060E008959FEF80EC0895FA
:1044900000240A9416161706180609060895002423
:1044A0000A9412161306140605060895092E03949D
:1044B000000C11F4882352F0BB0F40F4BF2B11F411
:1044C00060FF04C06F5F7F4F8F4F9F4F089557FD70
:1044D0009058440F551F59F05F3F71F04795880F72
:1044E00097FB991F61F09F3F79F087950895121609
:1044F00013061406551FF2CF4695F1DF08C01616B5
:1045000017061806991FF1CF869571056105089465
:104510000895E894BB2766277727CB0197F908957C
:104520000E94F422A59F900DB49F900DA49F800D32
:10453000911D112408952F923F924F925F926F9296
:104540007F928F929F92AF92BF92CF92DF92EF9223
:10455000FF920F931F93CF93DF93CDB7DEB7CA1BA4
:10456000DB0B0FB6F894DEBF0FBECDBF09942A88CF
:10457000398848885F846E847D848C849B84AA8477
:10458000B984C884DF80EE80FD800C811B81AA8104
:10459000B981CE0FD11D0FB6F894DEBF0FBECDBFCF
:1045A000ED010895A1E21A2EAA1BBB1BFD010DC04F
:1045B000AA1FBB1FEE1FFF1FA217B307E407F507D3
:1045C00020F0A21BB30BE40BF50B661F771F881FAF
:1045D000991F1A9469F760957095809590959B0145
:1045E000AC01BD01CF010895A29FB001B39FC001EE
:1045F000A39F700D811D1124911DB29F700D811D0F
:104600001124911D08955058BB27AA270E941B23EF
:104610000C9456220E94482238F00E944F2220F02B
:1046200039F49F3F19F426F40C9445220EF4E095DA
:10463000E7FB0C943F22E92F0E94672258F3BA1738
:10464000620773078407950720F079F4A6F50C94A8
:1046500089220EF4E0950B2EBA2FA02D0B01B90183
:1046600090010C01CA01A0011124FF27591B99F0E8
:10467000593F50F4503E68F11A16F040A22F232FF4
:10468000342F4427585FF3CF469537952795A79544
:10469000F0405395C9F77EF41F16BA0B620B730BEB
:1046A000840BBAF09150A1F0FF0FBB1F661F771F5C
:1046B000881FC2F70EC0BA0F621F731F841F48F411
:1046C000879577956795B795F7959E3F08F0B0CF9A
:1046D0009395880F08F09927EE0F97958795089581
:1046E0000E94AB2108F48FEF0895EE0FFF1F059095
:1046F000F491E02D09940F931F93CF93DF938230B1
:10470000910510F482E090E0E0916303F09164037E
:1047100030E020E0B0E0A0E0309799F421153105B9
:1047200009F44AC0281B390B24303105D8F58A8199
:104730009B816115710589F1FB0193838283FE01E1
:1047400011C0408151810281138148175907E0F05F
:104750004817590799F4109761F012960C93129725
:1047600013961C933296CF01DF91CF911F910F9139
:1047700008950093630310936403F4CF211531056A
:1047800051F04217530738F0A901DB019A01BD012E
:10479000DF01F801C1CFEF01F9CF9093640380935B
:1047A0006303CDCFFE01E20FF31F8193919322505B
:1047B000310939832883D7CF209161033091620377
:1047C000232B41F4209102013091030130936203C5
:1047D00020936103209100013091010121153105E1
:1047E00041F42DB73EB74091040150910501241BBF
:1047F000350BE0916103F0916203E217F307A0F437
:104800002E1B3F0B2817390778F0AC014E5F5F4F26
:104810002417350748F04E0F5F1F509362034093F3
:104820006103819391939FCFF0E0E0E09CCFCF9321
:10483000DF930097E9F0FC01329713821282A09176
:104840006303B0916403ED0130E020E01097A1F420
:1048500020813181820F931F209161033091620387
:104860002817390709F061C0F0936203E0936103F0
:10487000DF91CF910895EA01CE17DF07E8F54A816D
:104880005B819E0141155105B1F7E901FB83EA8384
:1048900049915991C40FD51FEC17FD0761F4808130
:1048A00091810296840F951FE90199838883828103
:1048B00093819B838A83F0E0E0E012968D919C9136
:1048C00013970097B9F52D913C911197CD01029660
:1048D000820F931F209161033091620328173907DB
:1048E00039F6309751F51092640310926303B09338
:1048F0006203A0936103BCCFD383C2834081518103
:10490000840F951FC817D90761F44E5F5F4F8881E8
:104910009981480F591F518340838A819B819383DA
:1049200082832115310509F0B0CFF0936403E09341
:1049300063039ECFFD01DC01C0CF13821282D7CF6B
:10494000B0E0A0E0E6EAF4E20C949D228C0100972E
:1049500051F4CB010E947B238C01C801CDB7DEB797
:10496000E0E10C94B922FC01E60FF71F9C012250F4
:104970003109E217F30708F49DC0D901CD91DC910C
:104980001197C617D70798F0C530D10530F3CE017F
:1049900004978617970708F3C61BD70B2297C19376
:1049A000D1936D937C93CF010E941724D6CF5B01E6
:1049B000AC1ABD0A4C018C0E9D1EA0916303B091F0
:1049C0006403512C412CF12CE12C109731F580918E
:1049D0006103909162038815990509F05CC0461641
:1049E000570608F058C0809100019091010100978E
:1049F00041F48DB79EB74091040150910501841B8D
:104A0000950BE817F90708F055C0F0936203E0939F
:104A10006103F90171836083A0CF8D919C911197FF
:104A200012966C90129713967C901397A815B9055F
:104A300059F56C0142E0C40ED11CCA14DB0420F10C
:104A4000AC014A195B09DA011296159780F062826F
:104A5000738251834083D9016D937C93E114F104F7
:104A600071F0D7011396FC93EE93129776CF2296AE
:104A70008C0F9D1FF90191838083F301EFCFF09399
:104A80006403E093630369CF4816590608F42C01C8
:104A90007D01D3019ACFCB010E947B237C0100973B
:104AA00049F0AE01B8010E946225C8010E94172496
:104AB000870153CF10E000E050CF81E090E0F89400
:104AC0000C947925FB01DC0102C001900D9241504C
:104AD0005040D8F70895DC0101C06D93415050401B
:104AE000E0F70895FB01DC0101900D920020E1F751
:104AF000089515E0C6E7D5E004C0FE010E947523C5
:0C4B00002196C737D107C9F7F894FFCF02
:104B0C00000065038000A101AC01B60100000000AB
:104B1C008406A405D105D1064206E0053406000042
:104B2C000000950CA40594144F10A009A1053A0F90
:104B3C00120F2E0F220FA20FA1055B0A5814100999
:104B4C0059095B0E3E0EC60D670D0D0A00554E4BF6
:104B5C004E4F574E00546F75726E657220C3A02075
:104B6C0067617563686500546F75726E657220C3FA
:104B7C00A02064726F69746500436F6E74696E7502
:104B8C00657220746F75742064726F69740044656B
:104B9C0074656374656420737065636965733A202A
:104BAC00007665727369636F6C6F720076697267F9
:0E4BBC00696E696361007365746F7361000058
:00000001FF
